:100000000C942A000C9434000C9434000C943400AA
:100010000C9434000C9434000C9434000C94340090
:100020000C9434000C9434000C9434000C94F100C3
:100030000C9434000C9434000C9434000C94340070
:100040000C9434000C9434000C9434000C94340060
:100050000C94340011241FBECFE5D4E0DEBFCDBF29
:100060000E94DF000C9437010C94000090BD89B908
:1000700088E18AB9579A599A8EE880BD089561152A
:10008000710551F0FC01680F791F5F9BFECF9CB199
:100090009193E617F707C9F780E090E0089561159E
:1000A000710551F0FC01680F791F5D9BFECF9191A6
:1000B0009CB9E617F707C9F780E090E0089566233A
:1000C000B9F0FC016150262F30E02F5F3F4FAC01AB
:1000D000420F531F80E021E99191892798E080FD2C
:1000E000822786959150D9F7E417F507A9F7089567
:1000F00080E00895CF92DF92EF92FF920F931F93CB
:10010000CF93DF93CDB7DEB727970FB6F894DEBF56
:100110000FBECDBF7C01162F072F5F99FECFCE01FA
:1001200001966C0187E0F60111928A95E9F781E06A
:1001300090E09A8389835C834B831D830E83612FB8
:10014000C7010E945F008F83F89467E070E0C601EA
:100150000E944F00612F702FC7010E944F007894BA
:1001600027960FB6F894DEBF0FBECDBFDF91CF91BB
:100170001F910F91FF90EF90DF90CF900895CF9354
:10018000DF93EC01F89467E070E00E943F006C811F
:100190007D81CE0107960E943F0078948A819B81E1
:1001A000019749F481E02C813D812138310508F423
:1001B00080E0819501C08FEFDF91CF9108958BECA6
:1001C00090E00E9436008D9A7894959A2FEF83EDF7
:1001D00090E3215080409040E1F700C000009598E6
:1001E000FFCF1F920F920FB60F9211242F933F93C0
:1001F0004F935F936F937F938F939F93AF93BF932F
:10020000EF93FF93CF93DF93CDB7DEB7C758D109F4
:10021000DEBFCDBFCE01019627E8FC0111922A95E1
:10022000E9F70E94BF00811108C08885823021F063
:10023000833019F4959A01C09598C957DF4F0FB6CE
:10024000F894DEBF0FBECDBFDF91CF91FF91EF914C
:10025000BF91AF919F918F917F916F915F914F91DE
:100260003F912F910F900FBE0F901F901895F8940B
:02027000FFCFBE
:00000001FF
