:100000000C942A000C9447000C9447000C94470071
:100010000C9447000C9447000C9447000C94470044
:100020000C9447000C9447000C9447000C94FF007C
:100030000C9447000C9447000C9447000C94470024
:100040000C9447000C9447000C9447000C94470014
:100050000C94470011241FBECFE5D4E0DEBFCDBF16
:1000600010E0A0E6B0E0E8E8F2E002C005900D92F2
:10007000A636B107D9F720E0A6E6B0E001C01D9290
:10008000A836B207E1F70E94E5000C9442010C94F7
:10009000000090BD89B988E18AB9579A599A8EE8CB
:1000A00080BD08956115710551F0FC01680F791F3D
:1000B0005F9BFECF9CB19193E617F707C9F780E0ED
:1000C00090E008956115710551F0FC01680F791FEA
:1000D0005D9BFECF91919CB9E617F707C9F780E0C9
:1000E00090E008956623B9F0FC016150262F30E0BE
:1000F0002F5F3F4FAC01420F531F80E021E99191E8
:10010000892798E080FD822786959150D9F7E417DA
:10011000F507A9F7089580E00895CF92DF92EF9256
:10012000FF920F931F93CF93DF93CDB7DEB727973F
:100130000FB6F894DEBF0FBECDBF7C01162F072F80
:10014000F894CE0101966C0187E0F60111928A9530
:10015000E9F781E090E09A8389835C834B836D8328
:100160007E83C7010E9472008F8367E070E0C60142
:100170000E946200612F702FC7010E946200789474
:1001800027960FB6F894DEBF0FBECDBFDF91CF919B
:100190001F910F91FF90EF90DF90CF900895CF9334
:1001A000DF93EC01F8948A819B81019749F46C817B
:1001B0007D816138710520F4CE0107960E945200BE
:1001C0007894CE01DF91CF9108958BEC90E00E945E
:1001D00049008D9A7894959A2FEF83ED90E3215002
:1001E00080409040E1F700C00000959840E050E06A
:1001F00065E070E080E690E00E948D00FFCF1F92E6
:100200000F920FB60F9211242F933F934F935F934A
:100210006F937F938F939F93AF93BF93EF93FF93CE
:10022000CF93DF93CDB7DEB7C758D109DEBFCDBFBF
:10023000CE0101960E94CF008B819C81019741F4F1
:100240008885823021F0833019F4959A01C0959801
:10025000C957DF4F0FB6F894DEBF0FBECDBFDF9199
:10026000CF91FF91EF91BF91AF919F918F917F912E
:100270006F915F914F913F912F910F900FBE0F9013
:080280001F901895F894FFCFC0
:0602880032360A0D0000F1
:00000001FF
